S113400098FDFF1FD94A0000194B0000194B00000E
S1134010000000000000000000000000000000009C
S1134020000000000000000000000000194B000028
S11340300000000000000000194B0000194B0000B4
S1134040194B0000194B0000194B0000194B0000DC
S1134050194B0000194B0000194B0000B158000027
S1134060194B0000194B0000515800005D58000026
S1134070015800000D58000019580000194B0000A9
S1134080194B000069580000755800008158000061
S11340908D580000194B000099580000A5580000E5
S11340A0BD580000C9580000194B0000194B00000E
S11340B0194B0000715C00005D5A0000194B0000B0
S1134400FFFFFFFFFFFFFFFFFFFFFFFFFFFFFEFFB9
S1134A0010B5064C2378002B07D1054B002B02D0A0
S1134A10044800E000BF0123237010BD68F0FF1FAD
S1134A20000000001C70000008B5084B002B03D0E8
S1134A300748084900E000BF07480368002B03D07B
S1134A40064B002B00D0984708BDC046000000006C
S1134A501C7000006CF0FF1F64F0FF1F00000000DA
S1134A60164B002B00D1144B9D46402292029A1AF9
S1134A70924600218B460F461348144A121A02F03C
S1134A8093FA0F4B002B00D098470E4B002B00D00D
S1134A9098470020002104000D000D48002802D092
S1134AA00C4800E000BF02F059FA2000290002F08F
S1134AB0F5F902F03DFAC0460000080098FDFF1F1A
S1134AC0000000000000000068F0FF1F98F5FF1FC1
S1134AD0000000000000000072B6094809490A4AB3
S1134AE002600A6002F0E6F962B60849084A094B16
S1134AF09B1A03DD043BC858D050FBDCFFF7B0FF22
S1134B0080E100E080E200E0FFFFFFFF447000006E
S1134B1000F0FF1F68F0FF1FFEE7C046002934D0F5
S1134B200123002210B488422CD301242407A1427B
S1134B3004D2814202D209011B01F8E7E400A14238
S1134B4004D2814202D249005B00F8E7884201D3D3
S1134B50401A1A434C08A04202D3001B5C082243AB
S1134B608C08A04202D3001B9C082243CC08A0421C
S1134B7002D3001BDC082243002803D01B0901D008
S1134B800909E3E7101C10BC7047002801D000207D
S1134B90C04307B4024802A14018029003BDC046B6
S1134BA0190000000029F0D003B5FFF7B9FF0EBCCF
S1134BB04243891A1847C0467047C04680B582B040
S1134BC000AF174AFB1D12781A70154ABB1D5278A4
S1134BD01A70134A3B1D92881A80114ABB1CD28852
S1134BE01A80FB1DFA1D11787F220A401A700C4BA3
S1134BF00C4A5A800A4B0C4A5A80094BBA1D127847
S1134C005A70074B3A1D12889A80054BBA1C1288B9
S1134C10DA80034BFA1D12781A70BD4602B080BDCB
S1134C2000200540C5200000D928000080B500AF51
S1134C3000F056FE044B054A5A80034B044A5A803E
S1134C4000F048FEBD4680BD00200540A6020000DD
S1134C50B480FFFF80B582B000AF78607B68DB78FA
S1134C60DBB220221343DAB27B68DA70BD4602B0AD
S1134C7080BDC04680B586B000AF786039603B68BF
S1134C805B687B613B689B683B617A682F4B9A4207
S1134C9007D12F4B2E4A5269802149030A435A6196
S1134CA012E07A682B4B9A4207D1294B284A526961
S1134CB0802189030A435A6106E0254B244A52693C
S1134CC08021C9030A435A617B68DB78DBB20C227A
S1134CD09343DAB27B68DA707B6800229A707B694E
S1134CE01A093B695B08D318181C3969FFF716FFCA
S1134CF0031C1A1C3B1C0E331A807B681B78DAB227
S1134D003B1C0D331F218A431A703B1C0E331B8836
S1134D101B0A9BB2DAB21F231340DAB23B1C0D33D9
S1134D201B781343DAB27B681A703B1C0E331B8862
S1134D30DAB27B685A707B68DB78DBB20C221343EF
S1134D40DAB27B68DA70BD4606B080BD00A00640CA
S1134D500080044000B0064080B500AF054B1B68DE
S1134D60002B04D0034B1B68034A101C9847BD4614
S1134D7080BDC04684F0FF1F00A0064080B500AF90
S1134D80054B1B68002B04D0034B1B68034A101C03
S1134D909847BD4680BDC04684F0FF1F00B0064062
S1134DA080B500AF054B1B68002B04D0034B1B6878
S1134DB0034A101C9847BD4680BDC04684F0FF1FBF
S1134DC000C0064080B500AF044B1B68002B02D026
S1134DD0024B1B689847BD4680BDC04688F0FF1F44
S1134DE080B500AF044B5B68002B02D0024B5B68BC
S1134DF09847BD4680BDC04688F0FF1F80B500AF10
S1134E00034B034A126880210A431A60BD4680BDE1
S1134E1000D0034080B500AFFFF7F0FF044B1B68E0
S1134E20002B02D0024B1B689847BD4680BDC0468C
S1134E3090F0FF1F80B500AF044B1B68002B02D01D
S1134E40024B1B689847BD4680BDC04694F0FF1FC7
S1134E5080B500AF044B5B68002B02D0024B5B684B
S1134E609847BD4680BDC04694F0FF1F90B58DB0F5
S1134E7000AFF860B960BB1D1A803B1C2E330022C2
S1134E801A803B1C1A33BA1D1288D2081A80BB1D23
S1134E901B88D9B23B1C193307220A401A703B1CE9
S1134EA019331B789B08DAB23B1C16331A80FB6853
S1134EB0BB62BB683B62FA680323134007D03B1C08
S1134EC02E33504A1A803B1C2E331B8896E0002355
S1134ED0FB6124E03B6A1A1D3A621B687B623B6AF1
S1134EE01A1D3A621B683B613C1C2E34B96A7A6A0B
S1134EF03B69081C111C1A1C00F020F9031C2380B8
S1134F003B1C2E331B88002B03D03B1C2E331B88E9
S1134F1074E0BB6A0833BB62FB690133FB613B1C71
S1134F201A331A88FB699A42D4DC0023FB611DE022
S1134F303B6A1A1D3A621B687B623C1C2E34BA6AB7
S1134F407B6A101C191C00F05FF8031C23803B1CB7
S1134F502E331B88002B03D03B1C2E331B884DE0C3
S1134F60BB6A0433BB62FB690133FB613B1C163330
S1134F701A88FB699A42DBDC3B1C16331B88DBB2C4
S1134F809B00DAB23B1C1933391C193109788A1A8F
S1134F901A703B1C19331B78002B03D13B1C2E3396
S1134FA01B882BE001235B427B623B1C19331B787B
S1134FB0013B3A6AD318BB603B1C19331B78FB6175
S1134FC00CE07B6A1B027B62BB685A1EBA601B78CA
S1134FD07A6A13437B62FB69013BFB61FB69002B2B
S1134FE0EFDC3C1C2E34BA6A7B6A101C191C00F0DE
S1134FF00BF8031C23803B1C2E331B88181CBD4656
S11350000DB090BD0130000080B584B000AF786071
S113501039603B1C0E3300221A807A680323134044
S113502007D03B1C0E333F4A1A803B1C0E331B88AF
S113503074E03D4B30225A713B4B00225A703A4B7C
S113504006225A72384B7A68120CD2B21A72364B54
S113505001225A70344B7A68D2B21A72324B7A688F
S1135060120AD2B25A72304B02225A702E4B3A684C
S1135070120AD2B25A722C4B3A68D2B21A722A4B22
S113508003225A70284B3A68120ED2B25A72264B37
S11350903A68120CD2B21A72012000F083F9224B42
S11350A05B79DBB21A1C2023134007D03B1C0E3360
S11350B03A1C0E3212881D490A431A801A4B5B7936
S11350C0DBB21A1C1023134007D03B1C0E333A1CCE
S11350D00E32128816490A431A80134B5B79DBB2ED
S11350E01A1C0123134007D03B1C0E333A1C0E320A
S11350F0128810490A431A800B4B5B79DBB21A1CE5
S11351000223134007D03B1C0E333A1C0E32128884
S113511009490A431A803B1C0E331B88181CBD46E0
S113512004B080BD013000000000024008300000DF
S113513010300000113000001230000080B586B03D
S113514000AFF860B9607A603B1C163300221A8005
S1135150FA680323134007D03B1C16334B4A1A80CA
S11351603B1C16331B888DE0494B30225A71484B47
S113517000225A70464B06225A72454BFA68120CAA
S1135180D2B21A72424B01225A70414BFA68D2B21F
S11351901A723F4BFA68120AD2B25A723C4B02227C
S11351A05A703B4BBA68120AD2B25A72384BBA6878
S11351B0D2B21A72364B03225A70354BBA68120EA9
S11351C0D2B25A72324BBA68120CD2B21A72304B43
S11351D004225A702E4B7A68120AD2B25A722C4B9D
S11351E07A68D2B21A722A4B05225A70284B7A680E
S11351F0120ED2B25A72264B7A68120CD2B21A72BA
S1135200012000F0CFF8224B5B79DBB21A1C20237B
S1135210134007D03B1C16333A1C163212881D4922
S11352200A431A801A4B5B79DBB21A1C1023134011
S113523007D03B1C16333A1C1632128816490A430F
S11352401A80134B5B79DBB21A1C0123134007D07D
S11352503B1C16333A1C1632128810490A431A8032
S11352600B4B5B79DBB21A1C0223134007D03B1CA7
S113527016333A1C1632128809490A431A803B1C19
S113528016331B88181CBD4606B080BD01300000D3
S1135290000002400830000010300000113000000F
S11352A01230000080B584B000AF78603B1C0E3330
S11352B000221A807A680323134007D03B1C0E3364
S11352C0324A1A803B1C0E331B885BE0304B302281
S11352D05A712F4B00225A702D4B0A225A722C4BB2
S11352E07A68120CD2B21A72294B01225A70284BD6
S11352F07A68D2B21A72264B7A68120AD2B25A72F9
S1135300012000F04FF8224B5B79DBB21A1C2023FA
S1135310134007D03B1C0E333A1C0E3212881D4931
S11353200A431A801A4B5B79DBB21A1C1023134010
S113533007D03B1C0E333A1C0E32128816490A431E
S11353401A80134B5B79DBB21A1C0123134007D07C
S11353503B1C0E333A1C0E32128810490A431A8041
S11353600B4B5B79DBB21A1C0223134007D03B1CA6
S11353700E333A1C0E32128809490A431A803B1C28
S11353800E331B88181CBD4604B080BD01300000DC
S1135390000002400830000010300000113000000E
S11353A01230000080B582B000AF021CFB1D1A70E1
S11353B00C4B0C4AD268802149020A43DA600A4B3A
S11353C080225A71FB1D1B78002B07D0C046064B68
S11353D05B79DBB2DBB25BB2002BF8DABD4602B01C
S11353E080BDC046003000F00000024080B500AF30
S11353F0074B074A926804210A439A60054B1B68CD
S1135400002B02D0034B1B689847BD4680BDC046A5
S1135410009007409CF0FF1F80B500AF074B074A80
S1135420926804210A439A60054B5B68002B02D002
S1135430034B5B689847BD4680BDC04600A007404B
S11354409CF0FF1F90B585B000AF021CFB1D1A70C5
S11354503B1C0F33FA1D12781A703B1C0F331B7858
S11354601F2B25D8454B454A51693A1C0F321278F7
S11354700120041C9440221C0A435A613F4B3F4ABA
S113548091693A1C0F3212780120041C9440221CAA
S11354900A439A613A4B3A4A9268391C0F310978A7
S11354A00120041C8C40211CC9430A409A6062E01C
S11354B03B1C0F331B783F2B2CD83B1C0F333A1C5F
S11354C00F321278203A1A702E4B2E4A51693A1C28
S11354D00F3212780120041C9440221C0A435A61A2
S11354E0284B284A91693A1C0F3212780120041C77
S11354F09440221C0A439A61214B214AD268391CE8
S11355000F3109780120041C8C40211CC9430A4036
S1135510DA6030E03B1C0F331B78462B2BD83B1C46
S11355200F333A1C0F321278403A1A70164B164A4F
S113553051693A1C0F3212780120041C9440221C39
S11355400A435A61104B104A91693A1C0F3212787F
S11355500120041C9440221C0A439A61084B084A07
S11355601269391C0F3109780120041C8C40211C5C
S1135570C9430A401A61BD4605B090BD00F00F4012
S11355800090044040F00F4080F00F4080B582B09E
S113559000AF021CFB1D1A70FB1D1B78181CFFF7C3
S11355A051FFFB1D1B781F2B08D8174BFA1D1278CF
S11355B00121081C9040021C5A6022E0FB1D1B784C
S11355C03F2B0DD8FB1DFA1D1278203A1A700F4B91
S11355D0FA1D12780121081C9040021C5A6010E048
S11355E0FB1D1B78462B0CD8FB1DFA1D1278403A84
S11355F01A70074BFA1D12780121081C9040021CF6
S11356005A60BD4602B080BD00F00F4040F00F402C
S113561080F00F4080B582B000AF021CFB1D1A70F1
S1135620FB1D1B78181CFFF70DFFFB1D1B781F2BA0
S113563008D8174BFA1D12780121081C9040021C4F
S11356409A6022E0FB1D1B783F2B0DD8FB1DFA1D31
S11356501278203A1A700F4BFA1D12780121081C97
S11356609040021C9A6010E0FB1D1B78462B0CD85E
S1135670FB1DFA1D1278403A1A70074BFA1D127876
S11356800121081C9040021C9A60BD4602B080BDF6
S113569000F00F4040F00F4080F00F4080B500AFA5
S11356A0044B1B68002B02D0024B1B689847BD4675
S11356B080BDC046A4F0FF1F80B500AF044B1B683B
S11356C0002B02D0024B1B689847BD4680BDC046E4
S11356D0A8F0FF1F80B500AF044B5B68002B02D01D
S11356E0024B5B689847BD4680BDC046A8F0FF1FCB
S11356F080B500AF044B9B68002B02D0024B9B6823
S11357009847BD4680BDC046A8F0FF1F80B584B051
S113571000AF78607B685B7B082B01D9002367E0CE
S1135720354B1B78DBB21A1C1023134001D1002324
S11357305EE0C046304B9B79DBB2002BFAD03B1CB9
S11357400E3300221A702C4B2B4A9279D2B29A72E1
S1135750294A3B1C0E33927A1A703B1C0E331B7879
S1135760002BF0D0244A7B681B68DB08D9B23023B5
S1135770D154214A7B681B68DBB25B01D9B2312367
S1135780D1541D4A32230021D1541B4A3323002112
S1135790D1543B1C0F3300221A7012E03B1C0F3310
S11357A01B78164A9B183A1C0F32127879688A18AB
S11357B052791A703B1C0F331A783B1C0F33013299
S11357C01A707B685B7B3A1C0F3212789A42E5D3DD
S11357D0094A7B68597B3C23D154074A7B68997BEF
S11357E03D23D154044B3A1C0E3212789A71012392
S11357F0181CBD4604B080BD004002403440024045
S113580080B500AFFFF7A8FABD4680BD80B500AFF4
S1135810FFF7B4FABD4680BD80B582B000AF0B4B34
S11358201B79DBB21A1C2023134000D10AE0074A7B
S1135830FB1DD2791A70FB1D1B78181C00F06EFB3F
S1135840FFF7AEFABD4602B080BDC04600C00640B8
S113585080B500AFFFF7B6FABD4680BD80B500AF96
S1135860FFF7BEFABD4680BD80B500AFFFF724FF49
S1135870BD4680BD80B500AFFFF72CFFBD4680BD9F
S113588080B500AFFFF734FFBD4680BD80B500AFE3
S1135890FFF7C0FABD4680BD80B500AFFFF7CAFA76
S11358A0BD4680BD80B500AFFFF7D2FABD4680BDCE
S11358B080B500AFFFF7F2FEBD4680BD80B500AFF6
S11358C0FFF794FDBD4680BD80B500AFFFF7A4FD92
S11358D0BD4680BD80B500AF62B6BD4680BDC04642
S11358E080B500AF72B6BD4680BDC04680B582B0FB
S11358F000AF021CFB1D1A70064BFA1D1278111C16
S11359001F220A400121081C9040021C1A60BD4657
S113591002B080BD00E100E080B500AF194B9622D3
S11359201A70194B00225A70174B58221A70C0462D
S1135930154B1B79DBB21A1C10231340F8D0C04658
S1135940114B1B79DBB21A1C40231340F8D00F4BC8
S1135950882252045A620C4B04221A70C0460A4B25
S11359601B790B4B1322DA70C046094BDB78DBB290
S1135970DBB25BB2002BF8DA064B0022DA60BD46DC
S113598080BDC046005006400040064000800440F0
S113599000000240003000F080B500AF064B064A1C
S11359A01169064A0A401A61034B034A126901212C
S11359B00A431A61BD4680BD00800440FFDFFFFF3B
S11359C080B584B000AF3B1D0A4A5A603B1DE122FA
S11359D052029A60084A3B1D101C191CFFF74AF931
S11359E0054B181CFFF736F90E20FFF77FFFBD4665
S11359F004B080BD00366E0100C0064080B500AF23
S1135A002320FFF7C3FD3320FFF704FE1520FFF723
S1135A1001FEBD4680BDC04680B582B000AF0E4ACF
S1135A202023D35CDAB2BB1D1A80BB1DBA1D1288B9
S1135A30D2001A80084A2123D35CDBB25B09DBB2B3
S1135A40191CBB1DBA1D12880A431A80BB1D1B8872
S1135A50181CBD4602B080BD0040024080B500AFB6
S1135A60FFF7DAFF031C1A1C244B9A4200D03AE0D9
S1135A70234A2C23D35CDBB2082B33D1204A2423C2
S1135A80D35CDAB21F4B1A701D4A2523D35CDAB2F9
S1135A901C4B5A701A4A2623D35CDAB2194B9A70FB
S1135AA0174A2723D35CDAB2164BDA70144A282338
S1135AB0D35CDAB2134B1A71114A2923D35CDAB2DC
S1135AC0104B5A710E4A2A23D35CDAB20D4B9A71E9
S1135AD00B4A2B23D35CDAB20A4BDA71022000F0B2
S1135AE019FBFFE7C046064B054A1279D2B20121E1
S1135AF00A43D2B21A71BD4680BDC046DE0700001B
S1135B00004002401CF3FF1F80B582B000AF454A3D
S1135B104449C7239B00CB58C02109041943C72318
S1135B209B00D1503F4B3F4A12688021C9050A436C
S1135B301A603D4B3C4A5269802109020A435A616A
S1135B40394B394A1169394A0A401A61384B0122E2
S1135B501A70C046364B5B78DBB21A1C0123134023
S1135B60F8D0334B80225A70314BC0229A70304B9C
S1135B703A22DA7000237B602FE07B68002B09DB7C
S1135B807B68032B06DC2A4A7B68D3181033FF2278
S1135B901A701FE07B68032B09DD7B68072B06DC8A
S1135BA0234A7B68043BD318FF221A7512E07B68F2
S1135BB0072B09DD7B680B2B06DC1D4A7B68083B41
S1135BC0D318FF221A7605E0194A7B680C3BD318D8
S1135BD0FF221A777B6801337B607B680F2BCCDD57
S1135BE0134B00221A70C046114B5B78DBB21A1CAF
S1135BF001231340F8D1C0460D4B1B78DBB21A1CAD
S1135C0010231340F8D00A4BFF221A71084B0122CB
S1135C105A71074B0022DA710020FFF7FBFCBD46E6
S1135C2002B080BD00E100E000800440FFFFFEFF01
S1135C300040024080B500AFFFF76EFEFFF7ACFEF8
S1135C40FFF7DCFEFFF760FFFFF7BAFEBD4680BD3D
S1135C5080B582B000AF021CBB1D1A80034BBA1D75
S1135C6012881A80BD4602B080BDC04624F3FF1FCF
S1135C7080B582B000AF2F4B1A680123134005D0C2
S1135C802C4B2C4A126801218A431A60294B1A684A
S1135C90022313404AD0274B264A126802218A4322
S1135CA01A60244B5B681B041B0C7B60214B1B6834
S1135CB01B0C3B603B689AB21F4B1A807B689AB2FC
S1135CC01E4B1A801E4B1B785B07DB0FDBB2012BCC
S1135CD01BD11C4B1A68174B1B68190C1A4B9200EA
S1135CE0D150184B1A68134B5B681B04190C174BE3
S1135CF09200D1500F4B0F4A126802218A431A6056
S1135D00104B1B685A1C0F4B1A600E4B1B683E2B22
S1135D100CD90B4B1A7804218A431A70094B0022C0
S1135D201A60074B1A7808210A431A70BD4602B05C
S1135D3080BDC0460030034004F3FF1F06F3FF1F7D
S1135D4048F3FF1FB4F0FF1FECF0FF1FECF1FF1F3F
S1135D5080B586B000AFF860B960BB1D1A8000231F
S1135D607B610AE0BB685A1CBA60FA68511CF9608E
S1135D7012781A707B6901337B61BB1D1A887B69B9
S1135D809A42EFDCBD4606B080BDC04681B5FFB087
S1135D9000AFC023D9003A1C80239B00081C111CAF
S1135DA01A1CFFF7D5FF72B6C023DB00181CFFF7DF
S1135DB079FA62B6184B80229200D219D318FF22C6
S1135DC01A70154B80229200D219D318FF225A70F0
S1135DD0114B80229200D219D318FF229A700E4BD5
S1135DE080229200D219D3180122DA70C023D9007C
S1135DF03A1C80239B00081C111C1A1CFFF736F860
S1135E003A1C80239B00101C00211A1C01F0CCF8C2
S1135E10BD467FB081BDC04600FEFFFF80B500AF28
S1135E20094B1B78012B0DD1074B00221A70FFF789
S1135E30ADFFBFF34F8F054A054B0649D150BFF361
S1135E404F8FFEE7BD4680BD28F3FF1F00E000E052
S1135E500C0D00000400FA0580B500AFFFF740FD0B
S1135E60FFF7E8FEFFF736FD074B1A7802218A4355
S1135E701A70054B1A7840218A431A70FFF7CEFF37
S1135E8000F028F9FAE7C04648F3FF1F80B582B056
S1135E9000AF021CFB1D1A70C046074B1B79DBB216
S1135EA0DBB25BB2002BF8DA034BFA1D1278DA711D
S1135EB0BD4602B080BDC04600C0064080B584B077
S1135EC000AF78607B681B78181CFFF7DFFF3B1C72
S1135ED00F3300221A700FE03B1C0F331B787A68D3
S1135EE0D3185B78181CFFF7D1FF3B1C0F331A78CB
S1135EF03B1C0F3301321A703B1C0F331B78052BEC
S1135F00EAD97B681B7A181CFFF7C0FF7B685B7AB1
S1135F10181CFFF7BBFFBD4604B080BD80B582B03E
S1135F2000AF021CFB1D1A70FB1D1B78602B0FD1E8
S1135F305E4B1B78DB07DB0FDBB2002B08D15B4B1E
S1135F401A7801210A431A70594B00221A7013E07F
S1135F50FB1D1B780A2B0FD1544B1B781B06DB0F40
S1135F60DBB2002B08D1514B1A78802149420A43F5
S1135F701A70504B00221A704C4B1B78DB07DB0F56
S1135F80DBB2002B63D04A4B1B785A1CD1B2484A6F
S1135F901170494AF91D0978D154454B1B781A1CD4
S1135FA0464B1B78013B9A4251DD414B00221A704B
S1135FB03E4B1A7801218A431A703F4B1A78404BA2
S1135FC01A7009E03A4B1B783B4AD25C3C4B1B7875
S1135FD05340DAB23A4B1A70354B1B780133DAB2BC
S1135FE0334B1A70324B1B78062BEBD9324BDA79D0
S1135FF0334B1B789A4203D0072000F08BF826E03D
S11360002D4B1A782F4B1A702F4B00221A700FE069
S11360102D4B1B782C4A1278013227498A5C294976
S1136020CB185A70284B1B780133DAB2264B1A70FE
S1136030254B1B78052BEBD91F4BDA79214B1A72B0
S11360401D4B1A7A1F4B5A72022000F063F8174B4B
S11360501B781B06DB0FDBB2002B24D0154B1B78FF
S11360605A1CD1B2134A1170184AF91D0978D15437
S1136070104B1B78062B16D90E4B00221A700B4BB3
S113608019787F220A401A70104B5B780D2B0AD1C5
S11360900E4BDB78032B06D10C4B9B79F52B02D1ED
S11360A00B4B01221A70BD4602B080BD48F3FF1F9E
S11360B05DF3FF1F69F3FF1FB8F0FF1F00F0FF1F20
S11360C05EF3FF1FD0F0FF1F5CF3FF1FC4F0FF1F40
S11360D028F3FF1F80B500AF0B4B1B78012B10D1A9
S11360E0094B00221A70094B1B780F2B02D9074B5E
S11360F000221A70054B1B781A1C054B9200D358CA
S11361009847BD4680BDC04601F0FF1FCCF0FF1F7D
S1136110BC6F000080B582B000AF021CFB1D1A707A
S1136120044BFA1D12781A70034B01221A70BD46F3
S113613002B080BDCDF0FF1F01F0FF1F80B582B01B
S113614000AF021CFB1D1A70044BFA1D12781A7062
S11361500120FFF7DFFFBD4602B080BDCCF0FF1F7A
S113616080B500AF404B9B781A1C07231340052BC6
S113617077D89A003D4BD3181B689F463A4BDA7880
S11361803B4B1A70384B1A79394B5A70364B5A7943
S1136190374B9A70344B9A79354BDA70354B1B7800
S11361A00133DAB2334B1A705CE02F4BDA78324B9E
S11361B01A702D4B1A79304B5A702B4B5A792E4B3F
S11361C09A70294B9A792C4BDA702A4B1B7801333D
S11361D0DAB2284B1A7045E0234BDA78274B1A7051
S11361E0214B1A79254B5A701F4B5A79234B9A70BD
S11361F01D4B9A79214BDA701E4B1B780133DAB2AE
S11362001C4B1A702EE0184BDA781D4B1A70164B83
S11362101A791B4B5A70144B5A79194B9A70124BBA
S11362209A79174BDA70134B1B780133DAB2114B9E
S11362301A7017E00C4BDA78124B1A700A4B1A7961
S1136240104B5A70084B5A790E4B9A70064B9A7938
S11362500C4BDA70074B1B780133DAB2054B1A701A
S113626000E0C046BD4680BDD0F0FF1FFC6F0000BB
S11362706CF3FF1F90F3FF1F88F3FF1F74F3FF1FDE
S11362808CF3FF1F70F3FF1F80B500AF054B08228E
S11362905A73044B044A1A60024B00229A73BD4697
S11362A080BDC0464CF3FF1FD607000080B500AF89
S11362B0FEF7BCFCC046FFF7E7FF0120FFF73EFFF7
S11362C0BD4680BD80B582B000AF1D4B1B78032B4B
S11362D014D0042B2DD0022B03D0FEF7A7FCC0460C
S11362E02BE0184B5B78A22B07D1164B9B78002B25
S11362F003D10220FFF722FF1FE01EE0124B002211
S11363001A7000237B6007E00F4A7B68D3180022D1
S11363105A707B6801337B607B68062BF4DD0A4B83
S113632000221A72084B00225A720020FFF706FF5F
S113633003E00F20FFF702FFC046BD4602B080BD58
S1136340CDF0FF1FD0F0FF1F7CF3FF1F80B582B09C
S113635000AF304B1B78032B37D002DC022B08D064
S113636003E0042B4CD0052B4FD0FEF75FFCC04656
S11363704CE0294B5B78A22B22D1274B9B78152B21
S11363801ED8254B9B78002B1AD0FFF7E9FE234B30
S11363901B78002B0FD0214B1B78042B0BD81F4BE1
S11363A01B78042B03D10320FFF7C8FE07E0052068
S11363B0FFF7B0FE03E00520FFF7ACFE04E003E0C6
S11363C00520FFF7A7FE21E020E0154B00221A70FC
S11363D000237B6007E0124A7B68D31800225A70BE
S11363E07B6801337B607B68062BF4DD0C4B002259
S11363F01A720B4B00225A720020FFF79FFE05E031
S11364000F20FFF79BFEC04600E0C046BD4602B029
S113641080BDC046CDF0FF1FD0F0FF1F90F3FF1FDB
S11364207CF3FF1F80B582B000AF314B1B78032B88
S11364303AD002DC022B0BD003E0042B4FD0052B07
S113644052D0FEF7F3FBC0462A4B00221A704CE0F0
S1136450294B5B78A22B23D1274B9B78FF2B1FD191
S1136460264B02225A71254B10229A71234B81220A
S1136470DA71224BFF221A72204BFF225A721F4BF1
S1136480FF229A721D4BFF22DA721C4BFF221A73F1
S11364901A4B181CFFF73AF90420FFF74FFE24E0CB
S11364A00F20FFF74BFE20E0154B00221A7000234B
S11364B07B6007E0124A7B68D31800225A707B681D
S11364C001337B607B68062BF4DD0D4B00221A72CE
S11364D00B4B00225A720020FFF730FE05E00F201C
S11364E0FFF72CFEC04600E0C046BD4602B080BDAA
S11364F0CDF0FF1F90F3FF1FD0F0FF1F4CF3FF1FE1
S11365007CF3FF1F80B582B000AF314B1B78032BA7
S11365103AD002DC022B0BD003E0042B4FD0052B26
S113652052D0FEF783FBC0462A4B00221A704CE07F
S1136530294B1B78022B23D1274B5B78502B1FD17F
S1136540264B02225A71254B10229A71234B90221A
S1136550DA71224BFF221A72204BFF225A721F4B10
S1136560FF229A721D4BFF22DA721C4BFF221A7310
S11365701A4B181CFFF7CAF80520FFF7DFFD24E0CB
S11365800F20FFF7DBFD20E0154B00221A700023DB
S11365907B6007E0124A7B68D31800225A707B683C
S11365A001337B607B68062BF4DD0D4B00221A72ED
S11365B00B4B00225A720020FFF7C0FD05E00F20AC
S11365C0FFF7BCFDC04600E0C046BD4602B080BD3A
S11365D0CDF0FF1F90F3FF1F1CF3FF1F4CF3FF1FB1
S11365E07CF3FF1F80B582B000AF334B1B78032BC5
S11365F03ED002DC022B0BD003E0042B53D0052B3E
S113660056D0FEF713FBC0462C4B00221A7050E004
S11366102B4B1B78022B27D1294B5B78502B23D192
S1136620274B9B78902B1FD1264B02225A71254B66
S113663027229A71234B0122DA71224BFF221A720C
S1136640204BFF225A721F4BFF229A721D4BFF22CE
S1136650DA721C4BFF221A731A4B181CFFF756F8F8
S11366600620FFF76BFD24E00F20FFF767FD20E015
S1136670154B00221A7000237B6007E0124A7B68E6
S1136680D31800225A707B6801337B607B68062B29
S1136690F4DD0D4B00221A720B4B00225A720020BB
S11366A0FFF74CFD05E00F20FFF748FDC04600E072
S11366B0C046BD4602B080BDCDF0FF1F90F3FF1F62
S11366C01CF3FF1F4CF3FF1F7CF3FF1F80B582B048
S11366D000AF314B1B78032B3AD002DC022B0BD0DA
S11366E003E0042B4FD0052B52D0FEF79FFAC0468F
S11366F02A4B00221A704CE0294B1B78062B23D11D
S1136700274B5B78672B1FD1264B04225A71254BEC
S113671027229A71234B0222DA71224B00221A7229
S1136720204B00225A721F4BFF229A721D4BFF22EC
S1136730DA721C4BFF221A731A4B181CFEF7E6FF81
S11367400720FFF7FBFC24E00F20FFF7F7FC20E015
S1136750154B00221A7000237B6007E0124A7B6805
S1136760D31800225A707B6801337B607B68062B48
S1136770F4DD0D4B00221A720B4B00225A720020DA
S1136780FFF7DCFC05E00F20FFF7D8FCC04600E073
S1136790C046BD4602B080BDCDF0FF1F90F3FF1F81
S11367A01CF3FF1F4CF3FF1F7CF3FF1F80B582B067
S11367B000AF314B1B78032B3AD002DC022B0BD0F9
S11367C003E0042B4FD0052B52D0FEF72FFAC0461E
S11367D02A4B00221A704CE0294B1B78032B23D13F
S11367E0284B10225A71274B16229A71254B3B22B3
S11367F0DA71244B8B221A72234B1A78214B5A726A
S1136800214B5A781F4B9A721F4B9A781D4BDA72A0
S11368101D4BDA781B4B1A731A4B181CFEF776FFC4
S11368200820FFF78BFC24E00F20FFF787FC20E013
S1136830164B00221A7000237B6007E0134A7B6822
S1136840D31800225A707B6801337B607B68062B67
S1136850F4DD0E4B00221A720C4B00225A720020F7
S1136860FFF76CFC05E00F20FFF768FCC04600E072
S1136870C046BD4602B080BDCDF0FF1F90F3FF1FA0
S11368801CF3FF1F4CF3FF1F8CF3FF1F7CF3FF1F50
S113689080B582B000AF334B1B78032B3ED002DCB3
S11368A0022B08D003E0042B53D0052B56D0FEF75F
S11368B0BDF9C04653E02C4B1B78302B2AD12A4B10
S11368C05B78002B26D1294B21225A71284B1A7848
S11368D0264B9A71264B5A78244BDA71244B9A78BA
S11368E0224B1A72224BDA78204B5A72214B1A78B7
S11368F01E4B9A721F4B5A781C4BDA721D4B9A78B6
S11369001A4B1A73194B181CFEF700FF0920FFF7E6
S113691015FC24E00F20FFF711FC20E0164B0022A9
S11369201A7000237B6007E0134A7B68D3180022A7
S11369305A707B6801337B607B68062BF4DD0E4B59
S113694000221A720C4B00225A720020FFF7F6FB49
S113695005E00F20FFF7F2FBC04600E0C046BD464D
S113696002B080BDCDF0FF1F1CF3FF1F4CF3FF1FCF
S11369706CF3FF1F74F3FF1F7CF3FF1F80B582B01D
S113698000AF304B1B78032B3AD002DC022B0BD028
S113699003E0042B4FD0052B2BD0FEF747F9C0465C
S11369A00520FFF7B7FB4AE0274B22225A71274BF9
S11369B0DA78254B9A71264B1A78234BDA71244BDB
S11369C05A78214B1A72224B9A781F4B5A72204BD9
S11369D0DA781D4B9A721C4BFF22DA721A4BFF2293
S11369E01A73194B181CFEF791FE0A20FFF7A6FB39
S11369F025E00220FFF72CF90220FFF78BFB1EE0B5
S1136A00144B00221A7000237B6007E0114A7B6854
S1136A10D31800225A707B6801337B607B68062B95
S1136A20F4DD0C4B00221A720A4B00225A72002029
S1136A30FFF784FB03E00F20FFF780FBC046BD4651
S1136A4002B080BDCDF0FF1F4CF3FF1F74F3FF1F96
S1136A5088F3FF1F7CF3FF1F80B582B000AF2E4B7D
S1136A601B78032B35D002DC022B0BD003E0042B64
S1136A704AD0052B26D0FEF7D9F8C0460520FFF7EB
S1136A8049FB45E0254B23225A71244BFF229A717E
S1136A90224BFF22DA71214BFF221A721F4BFF2275
S1136AA05A721E4BFF229A721C4BFF22DA721B4B46
S1136AB0FF221A73194B181CFEF728FE0B20FFF750
S1136AC03DFB25E00220FFF7C3F80220FFF722FB7D
S1136AD01EE0134B00221A7000237B6007E0104A6B
S1136AE07B68D31800225A707B6801337B607B6813
S1136AF0062BF4DD0A4B00221A72094B00225A724B
S1136B000020FFF71BFB03E00F20FFF717FBC04635
S1136B10BD4602B080BDC046CDF0FF1F4CF3FF1F41
S1136B207CF3FF1F80B582B000AF324B1B78032B80
S1136B303BD002DC022B08D003E0042B50D0052B01
S1136B4053D0FEF773F8C04650E02B4B1B78022B52
S1136B5027D1294B5B787B2B23D1274B9B788B2B1D
S1136B601FD1264B02225A71244B1A229A71234BAD
S1136B708B22DA71214BFF221A72204BFF225A72A8
S1136B801E4BFF229A721D4BFF22DA721B4BFF220F
S1136B901A731A4B181CFEF7B9FD0C20FFF7CEFA36
S1136BA024E00F20FFF7CAFA20E0154B00221A70E8
S1136BB000237B6007E0124A7B68D31800225A70D6
S1136BC07B6801337B607B68062BF4DD0C4B002271
S1136BD01A720B4B00225A720020FFF7AFFA05E03D
S1136BE00F20FFF7ABFAC04600E0C046BD4602B036
S1136BF080BDC046CDF0FF1F1CF3FF1F4CF3FF1FE9
S1136C007CF3FF1F80B582B000AF344B1B78032B9D
S1136C103FD002DC022B08D003E0042B54D0052B18
S1136C2057D0FEF703F8C04654E02D4B1B78102BC9
S1136C302BD12B4B5B78122B27D1294B9B785A2BCA
S1136C4023D1274BDB788B2B1FD1264B30225A7153
S1136C50244BFF229A71234B3222DA71214BFF22FB
S1136C601A72204BFF225A721E4BFF229A721D4B3E
S1136C70FF22DA721B4BFF221A731A4B181CFEF701
S1136C8045FD0D20FFF75AFA24E00F20FFF756FACE
S1136C9020E0154B00221A7000237B6007E0124AA3
S1136CA07B68D31800225A707B6801337B607B6851
S1136CB0062BF4DD0C4B00221A720B4B00225A7285
S1136CC00020FFF73BFA05E00F20FFF737FAC04634
S1136CD000E0C046BD4602B080BDC046CDF0FF1FF7
S1136CE01CF3FF1F4CF3FF1F7CF3FF1F80B582B022
S1136CF000AF204B1B78032B17D002DC022B08D0EB
S1136D0003E0042B2CD0052B2FD0FDF78FFFC046BA
S1136D102CE0194B1B78212B03D10E20FFF70EFA20
S1136D2024E00F20FFF70AFA20E0144B00221A7027
S1136D3000237B6007E0114A7B68D31800225A7055
S1136D407B6801337B607B68062BF4DD0B4B0022F0
S1136D501A720A4B00225A720020FFF7EFF905E07D
S1136D600F20FFF7EBF9C04600E0C046BD4602B075
S1136D7080BDC046CDF0FF1F1CF3FF1F7CF3FF1F37
S1136D8080B582B000AF3D4B1B78032B52D002DCA0
S1136D90022B08D003E0042B67D0052B6AD0FDF743
S1136DA045FFC04667E0364B1B78222B3ED1354B5E
S1136DB001225A71334B20229A71324BFF22DA712D
S1136DC0304BFF221A722F4BFF225A722D4BFF2297
S1136DD09A722C4BFF22DA722A4BFF221A73294B28
S1136DE0181CFEF793FC284B60221A70264BB22223
S1136DF05A70254B01229A70234BFF22DA70224BE2
S1136E00FF221A71204BFF225A711F4BFF229A71E5
S1136E101D4BD3221A721C4B0A225A721A4B181C8D
S1136E20FFF74CF80020FFF789F924E00F20FFF763
S1136E3085F920E0144B00221A7000237B6007E0E0
S1136E40114A7B68D31800225A707B6801337B6037
S1136E507B68062BF4DD0C4B00221A720A4B0022CD
S1136E605A720020FFF76AF905E00F20FFF766F970
S1136E70C04600E0C046BD4602B080BDCDF0FF1F55
S1136E801CF3FF1F4CF3FF1F7CF3FF1F80B500AF03
S1136E900020FFF753F9BD4680BDC04680B582B0DF
S1136EA000AF00237B60FEF7D7FF7B6801337B6074
S1136EB0FBE7C04680B582B000AFFDF77FFE194BFB
S1136EC0184A5278D2B220210A43D2B25A70164BD1
S1136ED000225A62134B06221A70124B114A52783E
S1136EE0D2B2D2B2111C0F220A40D2B220210A43DC
S1136EF0D2B2D2B25A700D4B00221A70C046094B5E
S1136F001B79DBB21A1C10231340F8D0C046054B82
S1136F101B79DBB21A1C0C231340F8D1BD4602B016
S1136F2080BDC0460040064000800440005006403A
S1136F30084B10B5041C002B02D0002100E000BF58
S1136F40054B1868836A002B00D09847201C00F07A
S1136F5033F8C046000000001870000070B50E4BF6
S1136F600E4D0024ED1AAD101E1CAC4204D0A3003B
S1136F70F35898470134F8E700F050F8084B094DEE
S1136F800024ED1AAD101E1CAC4204D0A300F3582B
S1136F9098470134F8E770BD3C7000003C70000075
S1136FA03C70000040700000031C8218934202D021
S1136FB019700133FAE77047FEE7C046AD6200007E
S1136FC0C56200004D6300002564000005650000F3
S1136FD0E5650000CD660000AD6700009168000023
S1136FE07D690000596A0000256B0000056C0000F3
S1136FF0ED6C0000816D00008D6E00006262000087
S11370007C610000AA610000D861000006620000F3
S1137010346200004300000004F0FF1FF8B5C046CE
S1137020F8BC08BC9E467047F8B5C046F8BC08BC1E
S10770309E467047BD
S10B70342CDAFF7F01000000CB
S107703C294A0000D9
S1077040014A0000FD
S1137044090100000000000000000000000000002E
S11370540000000000000000000000000000000028
S11370640000000014700000000000000000000094
S11370740000000000000000000000000000000008
S113708400000000000000000000000000000000F8
S113709400000000000000000000000000000000E8
S10B70A40000000000000000E0
S9034AD9D9
